LL1XCONTACTS LL1DTALIB FFD0000000001XCONID    00001IC         400000               Y
LL1XCONTACTS LL1DTALIB FFD0000000002XCONTACTT 000008C        4000000    
LL1XCONTACTS LL1DTALIB FFD0000000003XCONLAME  000009C        5000000    
LL1XCONTACTS LL1DTALIB FFD0000000004XCONFNAME 000009C        5000000    
LL1XCONTACTS LL1DTALIB FFD0000000005XCONTACTG 00000AC        1500000    
LL1XCONTACTS LL1DTALIB FFD0000000006XCONEMAIL 000009C       20000000    
LL1XCONTACTS LL1DTALIB FFD0000000007XCONPHMOB 00000HC        1500000    
LL1XCONTACTS LL1DTALIB FFD0000000008XCONPHHME 00000HC        1500000    
LL1XCONTACTS LL1DTALIB FFD0000000009XCONPHFAX 00000HC        1500000    
LL1XCONTACTS LL1DTALIB FFD0000000010XCONPHBUS 00000HC        1500000    
LL1XCONTACTS LL1DTALIB FFD0000000011XCONNOTES 000009C      200000000    
LL1XCONTACTS LL1DTALIB FFD0000000012XCONIMAGE 000009C       25500000    
LL1XCONTACTS LL1DTALIB FFD0000000013XCONINTRS 000009C       20000000    
LL1XCONTACTS LL1DTALIB FFD0000000014XCONDOB   00000EC        1000000    
LL1XCONTACTS LL1DTALIB FFD0000000015XCONHMETN 000009C        5000000    
LL1XCONTACTS LL1DTALIB FFD0000000016XCONCITY  000009C        5000000    
LL1XCONTACTS LL1DTALIB FFD0000000017XCONJOBTL 000009C        5000000    
LL1XCONTACTS LL1DTALIB FFD0000000018XCONCMPY  000009C        5000000    
LL1XCONTACTS LL1DTALIB FFD0000000019XCONADDR  000009C       20000000    
LL1XCONTACTS LL1DTALIB FFD0000000020XCONWSITE 000009C       50000000    
LL1XCONTACTS LL1DTALIB VFD0000000021XCONFNAM  000009C       21000000    
LL1XCONTACTS LL1DTALIB VFD0000000022XCONFADD  000009C       26000000    
